:020000040800F2
:1000000058080020A1010008F51D0008F11D000896
:10001000F31D0008890E0008DD2100080000000023
:10002000000000000000000000000000F91D0008B2
:10003000CF0E000800000000F71D0008FB1D00089F
:10004000BB010008BB010008BB010008BB010008A0
:10005000BB010008BB010008BB010008BB01000890
:10006000BB010008BB010008BB010008BB01000880
:10007000BB010008BB0100088D0E0008990E0008A6
:10008000BB010008BB010008BB010008BB01000860
:10009000BB010008BB010008BB010008BB01000850
:1000A000BB010008BB010008BB010008BB01000840
:1000B000BB010008BB010008BB010008BB01000830
:1000C000BB010008BB010008BB010008BB01000820
:1000D000BB010008D1210008BB010008BB010008DA
:1000E000BB010008BB010008BB01000800F002F8DA
:1000F00000F047F80AA090E8000C82448344AAF17B
:100100000107DA4501D100F03CF8AFF2090EBAE878
:100110000F0013F0010F18BFFB1A43F0010318473B
:10012000CC210000EC210000103A24BF78C878C12F
:10013000FAD8520724BF30C830C144BF04680C60ED
:10014000704700000023002400250026103A28BF35
:1001500078C1FBD8520728BF30C148BF0B60704739
:10016000642900F07D80002070471FB59DE80300E2
:1001700000F05CFC00F062F91FBD10B500F0C7F99B
:1001800010BD00F02AFA1146FFF7EFFF02F044F825
:1001900000F01AFC03B4FFF7F0FF03BC00F0D8FD39
:1001A0000948804709480047FEE7FEE7FEE7FEE70B
:1001B000FEE7FEE7FEE7FEE7FEE7FEE70448054947
:1001C000054A064B704700005D1E0008ED00000860
:1001D000580200205808002058040020580400202D
:1001E0000FB4044910B503AA029800F0F9F810BC46
:1001F0005DF814FB500100202DE9F0410E46044645
:10020000002020622046E168884730B3252805D0C9
:10021000D4E901219047206A401CF2E7E1682046BA
:1002200000278847050018D0A5F14100192802D8F9
:1002300020354FF400673246294620462760FFF7F5
:100240008FFF40B1012804D0F61D26F007060836BE
:10025000D8E7361DD6E72846DAE7206ABDE8F08100
:100260002DE9F0410646002410687529314616A58F
:1002700010D0AFF30080002802DA404213A507E057
:1002800031688A0701D512A502E0490704D511A5F6
:10029000012401E0AFF3008000210A2206F12407C7
:1002A00009E0B0FBF2FCB0FBF2F302FB1C003030C3
:1002B00078541846491C0028F3D123462A46304674
:1002C000BDE8F04100F032B8000000002D00000051
:1002D0002B000000200000004FF0000200B5134684
:1002E00094469646203922BFA0E80C50A0E80C5056
:1002F000B1F12001BFF4F7AF090728BFA0E80C5007
:1003000048BF0CC05DF804EB890028BF40F8042BFF
:1003100008BF704748BF20F8022B11F0804F18BF6C
:1003200000F8012B70477047704770472DE9F04780
:100330000D4699469246044600F124080168880655
:1003400004D5E06921F01001216000E00120A842FD
:1003500001DD471B00E00027A1697A1902EB0900C3
:10036000081AA0612078C00602D42046AFF30080AE
:10037000002608E0D4E901211AF806009047206A17
:10038000401C761C20624E45F4DB2078C0060AD55E
:100390002046AFF3008006E0D4E9012130209047E9
:1003A000206A401C2062381EA7F10107F4DC07E038
:1003B000D4E9012118F805009047206A401C20620A
:1003C000281EA5F10105F3DC2046AFF3008020785C
:1003D000000602D50220BDE8F0870120FBE70000FF
:1003E000074B70B50D467B4400F011F804462846D3
:1003F00000F020F810B14FF0FF3070BD204670BD06
:10040000151E000001694A1C02610878704700B59A
:100410008FB0CDE901310021059105497944CDE93D
:10042000031011466846FFF7E7FE0FB000BD00005D
:10043000E5FFFFFF007B00F08000704710B54248E9
:100440005421FFF749FF41485421FFF745FF404839
:100450005421FFF741FF3F493B483C4A3F4B08606E
:100460003D490A603A491960531C0365481C1065F0
:10047000012008653B48344A39A1784400F008FA65
:1004800020B9384878440A3800F0A7FA37482F4A8C
:1004900035A1784400F0FCF920B9344878440A3892
:1004A00000F09BFA32482A4A2FA1784400F0F0F974
:1004B00020B92F4878440A3800F08FFA40232248A8
:1004C000DC000021224600F0BFF920B12548784425
:1004D000543800F082FA1D4822464023002100F0E3
:1004E000B3F920B121487844543800F076FA18481E
:1004F00022461023002100F0A7F9002806D01C484E
:100500007844BDE81040563800F067BA10BD104876
:1005100070B5006D20F001040B4800F02FFA0B4875
:1005200000F02CFA0A4800F029FA09E0206D20F0CA
:100530000105204600F022FA204600F073F82C4610
:10054000002CF3D170BD0000FC0000205001002001
:10055000A401002014000020180000201C0000202E
:1005600072000000601E0000770000004C1E0000BA
:10057000381E00000EB5CDE9000100F0C9FB029065
:1005800069460120ABBE0EBD08B569460090022049
:10059000ABBE08BD1FB58DE8070069460520ABBEA0
:1005A00004B010BD1FB58DE80F0069460620ABBE34
:1005B000F6E708B5694600900920ABBE08BD1CB53A
:1005C000CDE9000169460A20ABBE1CBD704708B5E5
:1005D000694600900C20ABBE08BD754600F004FAD9
:1005E000AE4605006946534620F00700854618B020
:1005F00020B5FFF7E3FDBDE820404FF000064FF0C7
:1006000000074FF000084FF0000B21F00701AC4647
:10061000ACE8C009ACE8C009ACE8C009ACE8C00966
:100620008D46704770B50446051F00F0E3F9006879
:10063000002C14BF446870BD002C18BFAC423CBFF6
:1006400020466468F8D301680A18AA4218BF4560BA
:1006500003D12A6805461144016028684119A14266
:100660001CBF6C6070BD61686960216808442860C7
:1006700070BD2DE9F04705460C46C86820F42010EF
:1006800040F48000C860800602D5084600F0FFFAFA
:10069000E06841F282014FF0FF390140022903D0A6
:1006A000204600F09DFAB5E000F42041B1F5004F7E
:1006B0000FD1C00306D56168E06A884200D80846B9
:1006C000606006E02069E06260606069FFF77FFFBC
:1006D000A061A0680022EEB200280DDAE1688B0567
:1006E0000AD4C043A06041F490302260E0606068AA
:1006F000411C61600670A5E0E0689046226040F40D
:100700000050E060206968BB6069FFF752FF012775
:1007100004F12405A0B1A08910F4407F08D0E0695D
:1007200000F0B3F9206118B1E06840F4006016E011
:10073000E7612561E06820F4407040F480600EE0DD
:10074000E06900F0A2F900282061F1D0E06840F4EF
:10075000006010F4407FE06002D140F48070E060FF
:1007600020696060E06825696FF0010AC1051FD546
:100770006168E06A884200D80846411B04D02246DE
:10078000284600F037FAF0BBE068010203D5E562C5
:10079000C4E9015854E0691CE1626160E16940F418
:1007A0008030491EC4E9021030462E70BDE8F08743
:1007B000010202D500F480320AE06068411C6160E9
:1007C0000670E0680A2E40F48030E06006D0002217
:1007D000E16A6068814203D90B4602E00122F7E733
:1007E0000346A7895B1B7F0503D4E7699F4200DDB1
:1007F000E2B1814200D80146E5620F1AC4E901580E
:10080000002B09DD00E005E022461946284600F0ED
:10081000F1F908B14846C9E747B1A069E5626560EA
:10082000C01BA061E06840F01000E060E0680002DA
:1008300008D56168A069E562491B08446560A0614C
:100840005046B3E73046B1E770B5C468A50713D08A
:10085000650211D4B2F5807F09D0B2F5007F06D0D1
:10086000B2F5806F08D1012300F1240106E05D1E7E
:100870006FF07F46B54201D3012070BD0161C361B5
:10088000416024F470611143C160002070BD00001C
:100890002DE9F0410C4607461646104600F06EF86A
:1008A0002078611C61280AD0722802D077283CD1B8
:1008B00002E00125002405E00225042402E00824CA
:1008C00048F2020511F8010B2B2806D0622809D046
:1008D00011F8010C74280AD00BE045F0030544F030
:1008E0000204EFE745F0040544F00104EAE744F0B0
:1008F000100438462146FFF73DFE411C15D000216B
:10090000316171604FF40071F560F1617061200731
:1009100004D530460222002100F0E6F8306D40F0A8
:10092000010030653046BDE8F0810020FBE72DE98D
:10093000F0410D460646104C206DC10704D0410819
:1009400004D020F00104F7E722460EE0542000F026
:100950009CF807000ED0206D47F001010843542198
:1009600020653846FFF7B8FC3A4629463046BDE8D0
:10097000F0418DE70020D6E7FC0000202DE9F0478C
:1009800004464FF000094FF0FF37C568D4E90486EC
:10099000A80707D0204600F057F93046FFF7F4FDCE
:1009A000002802DA3846BDE8F087280502D540461F
:1009B000FFF738FE4C212046FFF78EFC206D20F01B
:1009C000010020654846EEE710B50446AFF300800D
:1009D0002046BDE81040FFF7DDBB10B500F07EF902
:1009E000BDE8104000F074B900487047F8010020DD
:1009F00070470000004870470002002070477047B1
:100A00007047704738B504460A4600206946AFF380
:100A10000080002808BF38BD02460099204600F03B
:100A2000A4F9012038BD012000F0F3B9F8B5AFF307
:100A30000080054600200C46102000BF0646A8197D
:100A4000A0420DD9324669460020AFF3008007006E
:100A500008BF00F0DEF90098A04218BF0546C4198F
:100A6000FFF7C8FF05600746F01D20F00700461994
:100A7000284600F073F9B44208BFF8BDA21B314606
:100A80003868BDE8F84000F070B970B50646FFF769
:100A9000B1FF056806F10B0020F00704B4429CBFCB
:100AA000002070BD2B466A68BAB11068A04210D30E
:100AB00004F1080188423CBF5068586007D3516870
:100AC000101941601168091B016058601460101D05
:100AD00070BD13465268002AE7D121462846FFF729
:100AE00091FF0028DED170BD2DE9F0410446164685
:100AF0000D464769007B80072ED03846FFF759FD29
:100B000050BB3EB3012E02D0022E25D104E0204678
:100B100000F045F905441DE03846FFF758FDE1684F
:100B2000002841F01001E16005DA204600F058F895
:100B30000120BDE8F081C9030BD56268E16A9142EA
:100B400000D81146A26911442269891A814200DD48
:100B500008460544002D01DA0220EAE7E16A6068F0
:100B6000E268814206D29103E06203D522F40031AB
:100B700041F01002A6690027AE4213DCE16A81420F
:100B800001D90B4600E0034603EB060C2369ACEBEE
:100B9000030CAC4506DD814201D98C4600E0844659
:100BA0009C4505D1A760276042F02000A5620DE0BA
:100BB000AD1BE669AE1B8142A66000D90846C01A8B
:100BC000281A20605819606022F02000034908406C
:100BD000E060002084F84870ABE70000BFCFD7FF8B
:100BE000C16821F4001141F08001C16000218160E1
:100BF000016070472DE9F047814614460E464FF0DC
:100C0000FF383248D5685769054209D03846A1698E
:100C1000FFF7D5FC002811DB2C48C0430540E560F8
:100C20002B46324649463846FFF7B4FCA16920F00E
:100C30000042B21A11440028A16103D02046FFF7F8
:100C4000CFFF4046BDE8F08770B504460569C06A2D
:100C50006168884200D80846E16821F42011E1600B
:100C6000C90312D5A84208D02246411B2846FFF7E7
:100C7000C1FF10B14FF0FF3070BD0020E562C4E944
:100C80000150E06820F48030E060002070BD10B5B5
:100C90000446C06820F02000E060A16AA069884294
:100CA0000DD02046FFF7D0FFE06820F4405040F020
:100CB0001000E060A06AA0612069E062606044F218
:100CC0004001E0688843E06010BD000010000200B1
:100CD000002801D000F03CB87047000010B5014674
:100CE00002A000F07DF8012010BD000053494752DA
:100CF000545245443A2052656469726563743A20DF
:100D000063616E2774206F70656E3A2000000000EA
:100D100010B5431C02E010F8011B71B18107FAD134
:100D20004FF0013202C88C1A8C4314EAC211F9D078
:100D3000C01A0A0603D0C01E10BDC01A10BD0A0496
:100D400001D0801E10BD0902FCD0401E10BD000065
:100D500001491820ABBEFEE7260002000021016019
:100D6000C0E90110704710207047034640688C4668
:100D7000002818BF88423CBF03464068F8D3186873
:100D80001844884207D00CF1030020F00700001D32
:100D9000411A521A0146081D0A60FFF743BC10B5FC
:100DA0000146C268900703D0900607D5886A0AE01A
:100DB00000F03EF801210160881E10BD8B69486873
:100DC00018440B69C01A91F848301BB191F84910CA
:100DD000401A10BD1103FCD50028FADD401E10BDDD
:100DE00070B505460C460A2000E06D1C00F018F8AE
:100DF00035B128780028F8D102E0641C00F010F822
:100E000014B120780028F8D1BDE870400A2000F025
:100E100007B810B500F010F8BDE81040FFF758BF54
:100E200008B569468DF800000320ABBE08BD000080
:100E300000487047F801002010B5012805D00021B6
:100E400003A0FFF7CDFF012010BD09A1F8E70000C6
:100E500053494752544D454D3A204F7574206F66A3
:100E60002068656170206D656D6F7279000000000B
:100E70003A2048656170206D656D6F727920636FEF
:100E80007272757074656400FEE70000014800F03E
:100E900091B8000074000020014800F08BB80000F9
:100EA000B800002030B590F840500124AC40C56B2C
:100EB0006C60046863604368102B036803D099601A
:100EC0000068C26030BD9A600068C16030BD704784
:100ED00072B6FEE710B590F821100022022905D065
:100EE0000421816380F82020012010BD01680B6877
:100EF00023F00E030B6001680B6823F001030B6005
:100F000090F84030C46B012101FA03F3636080F86C
:100F1000211080F82020104610BD000010B590F878
:100F200021100024022903D00421816301243DE023
:100F300001680A6822F00E020A6001680A6822F05D
:100F400001020A601A4A0168914201D1012121E09F
:100F5000174A1432914201D110211BE0144A283261
:100F6000914201D1891515E0114A3C32914201D1DB
:100F700089140FE00E4A5032914202D14FF4803171
:100F800008E00B4A6432914202D14FF4801101E033
:100F90004FF08071064A083A5160012180F8211013
:100FA000002180F82010416B01B18847204610BD18
:100FB000080002402DE9F05FC16B0C6801680B6806
:100FC000D0F840C0042202FA0CF2494DDFF824A107
:100FD000494E4A4FDFF828B1DFF828E122422CD0F1
:100FE0005A072AD50A68920603D40A6822F0040236
:100FF0000A600168A94201D1042219E0514501D1DA
:10100000402215E0B14202D14FF4806210E0B942B3
:1010100002D14FF480420BE0594502D14FF48022B7
:1010200006E0714502D14FF4800201E04FF080628A
:101030002F4908394A60C16A3BE04FF0020808FABC
:101040000CF818EA040F4FF000094FF0010235D0F8
:101050005FEA837832D50B689B0605D40B6823F0D2
:101060000A030B6080F821200168A94201D1022205
:1010700019E0514501D1202215E0B14202D14FF4CF
:10108000007210E0B94202D14FF400520BE0594512
:1010900002D14FF4003206E0714502D14FF4001244
:1010A00001E04FF00072124908394A6080F8209040
:1010B000816A00291AD0BDE8F05F0847082505FAC3
:1010C0000CF5254212D01B0710D50B6823F00E0338
:1010D0000B6090F84010C36B02FA01F15960826313
:1010E00080F8212080F82090016BE2E7BDE8F09FB6
:1010F000080002401C000240300002404400024050
:10110000580002406C00024030B528B308C81349AB
:1011100014221944B1FBF2F18900C16310498163C3
:10112000022141771A6843F6F0718A43D0E900142E
:101130002143D0E902452C432143046921434469FA
:101140002143846921431143196000214163012235
:1011500042770177084630BD012030BDF8FFFDBF62
:101160000000024070B5044690F8200000250128D8
:101170000CD0012084F8200094F821600020012E7A
:1011800006D084F820000225284670BD022070BDDC
:10119000022684F82160A0632068066826F0010614
:1011A00006602046FFF77EFEE06A0028206801689E
:1011B00002D041F00E0106E021F004010160206838
:1011C000016841F00A0101602068016841F00101F5
:1011D0000160D9E72DE9F84FDFF8B8910024A9F1B3
:1011E000040B23460F2709F1040AABF1040EC9E0F2
:1011F0000125A5402A40AA427DD1674ED1F804C0FE
:10120000ACEB0608B44532D014DCBCF1030F3AD085
:1012100009DCBCF1000F2AD0BCF1010F1CD0BCF1DD
:10122000020F31D11DE0BCF1110F17D0BCF1120F2C
:101230002AD119E0B8F5881F19D006DCB8F5803F2F
:1012400015D0B8F5801F1FD111E0B8F5001F0ED0E2
:10125000B8F5041F18D10AE0CB6815E0CB681B1D58
:1012600012E0CB6808330FE0CB680C330CE08B68DE
:101270002BB1012B4FF0080303D0456104E0042398
:1012800002E0056100E00023FF2A01D8064601E0E4
:1012900000F104064FEA840501D9A5F12005D6F82E
:1012A000008007FA05FC28EA0C0803FA05F548EA6D
:1012B0000508C6F800804D68ED0062D5374DAE696F
:1012C00046F00106AE61AD6924F0030605F00105A4
:1012D0000095334D06EB050CDCF80850A607360FD9
:1012E00007FA06F825EA0805DFF8B880404503D17B
:1012F0004FF0000817E044E0DFF8AC80404502D131
:101300004FF001080FE0DFF8A480404502D14FF014
:10131000020808E0DFF89880404502D14FF003084A
:1013200001E04FF0040808FA06F848EA0508CCF88E
:1013300008804D68D9F80060ED024D4601D516438E
:1013400000E096432E604D68DAF80060AD02554625
:1013500001D5164300E096432E604D68DBF800602F
:10136000AD035D4601D5164300E096432E604D68FF
:10137000DEF80060ED03754601D5164300E09643A4
:101380002E60641C0D682A46E5407FF431AFBDE84D
:10139000F88F000008040140000011100010024006
:1013A0000000014000080140000C01400010014015
:1013B00000140140014880687047000004000020CC
:1013C000024881680278114481607047040000205F
:1013D000074810B5016841F010010160032000F0DA
:1013E00075F80F2000F006F800F024F8002010BD7A
:1013F0000020024070B50D4D04464FF47A712878F4
:10140000B1FBF0F00A490968B1FBF0F000F0DCFA3A
:1014100048B9102C07D200222146501E00F036F8A1
:1014200000206C6070BD012070BD00000400002031
:10143000100000200C4808B5816941F0010181616C
:10144000816901F001010091C16941F08051C161E0
:10145000C06900F0805000900448416821F0E061CC
:1014600041F00071416008BD0010024000000140E1
:10147000002809DB00F01F02012191404009800093
:1014800000F1E020C0F8001170470000F0B40E4BEE
:101490001B680C46C3F30223C3F10705042D00D9D2
:1014A0000425191D072901D2002300E0DB1E0126B7
:1014B00006FA05F1491E214099409E40761E1640CD
:1014C0003143F0BC00F08BBE0CED00E0064900F0AB
:1014D000070208684FF6FF03184040EA0220034A5B
:1014E00010430860704700000CED00E00000FA05B2
:1014F0002DE9F0470F46050061D0434E306800F0FB
:101500000700B84209D2306820F007003843306045
:10151000306800F00700B84251D128683B4C810781
:1015200012D5400703D5606840F4E0606060287819
:10153000000703D5606840F4605060606068A96887
:1015400020F0F000084360602878C00728D0686861
:10155000012810D02168022810D0890700292EDA2E
:10156000616821F0030101436160FFF723FF8046BA
:1015700041F288390DE021688903EFE78901EDE741
:10158000FFF718FFA0EB0801494502D90320BDE889
:10159000F0876068696800F00C00B0EB810FEFD154
:1015A000306800F00700B8420BD9306820F007001F
:1015B00038433060306800F00700B84201D00120A5
:1015C000E5E72878400705D56068E96820F4E06021
:1015D000084360602878000706D56068296920F410
:1015E000605040EAC100606000F038F86168084A65
:1015F000C1F30311515CC840064908600648006801
:10160000FFF7F8FE0020C2E7002002400010024071
:10161000C6220008100000200800002004480549E8
:1016200000684968044AC1F30221515CC840704710
:101630001000002000100240D6220008044805498E
:1016400000684968044AC1F3C221515CC840704730
:101650001000002000100240D62200080E4A5168F7
:101660000E4801F00C03042B11D0082B0FD10C48AD
:10167000C1F38343C903C05C0AD55168084AC1F36A
:101680004041921E515C054A5043B0FBF1F0704757
:1016900004494843704700000010024000127A00DD
:1016A000B622000800093D002DE9F84F040070D073
:1016B0002078C04DC00749D06868C0F38100012878
:1016C00007D06868C0F38100022809D16868C003A8
:1016D00006D52868800339D560680028E7D035E052
:1016E0006068B0F5803F0BD010B1B0F5A02F11D0DD
:1016F000286820F480302860286820F4802002E0E8
:10170000286840F480302860606890B1FFF752FE8E
:1017100006460AE0286840F480202860F0E700BF11
:10172000FFF748FE801B642873D828688003F7D52C
:101730000CE0FFF73FFE064605E000BFFFF73AFE6C
:10174000801B6428F0D828688003F7D420789A4E4C
:1017500080074FF001094FF0000839D5686810F094
:101760000C0F07D06868C0F38100022809D16868AF
:10177000C00306D42868800714D52069012808D141
:1017800010E02069B0B1C6F80090FFF713FE0746DD
:1017900005E00AE1FFF70EFEC01B0228C4D8286846
:1017A0008007F7D52868616920F0F80040EAC10099
:1017B00028600DE0C6F80080FFF7FCFD074604E056
:1017C000FFF7F8FDC01B022823D828688007F7D44C
:1017D000207800072CD57948A169D9B1C0F80090CC
:1017E000FFF7E8FD074604E0FFF7E4FDC01B022811
:1017F0000FD8686A8007F7D571484FF4FA5100682E
:10180000B0FBF1F0009000BF0098411E0091FAD2A9
:101810000EE080E0C0F80080FFF7CCFD074604E052
:10182000FFF7C8FDC01B022875D8686A8007F7D487
:101830002078400760D5E8690027C00008D4E8692F
:1018400040F08050E861E869012700F08050009086
:101850005C480168C90513D40168834641F480716E
:101860000160FFF7A7FD824606E000BFFFF7A2FD7B
:10187000A0EB0A0064284ED8DBF80000C005F5D5BF
:10188000E06801280AD008B1052813D0286A20F0A2
:1018900001002862286A20F0040002E0286A40F073
:1018A00001002862E06841F2883B98B1FFF782FDB1
:1018B00082460BE0286A40F004002862EEE700BF91
:1018C000FFF778FDA0EB0A0159455AD8286A80072E
:1018D000F6D50CE0FFF76EFD824605E0FFF76AFDE6
:1018E000A0EB0A0159454CD8286A8007F6D41FB1ED
:1018F000E86920F08050E861E06988B36968C1F365
:101900008101022944D00228C6F8608004D0FFF784
:1019100051FD044638E034E0FFF74CFD074604E093
:10192000FFF748FDC01B02282BD828688001F7D498
:10193000206AB0F5803F05D16868A16820F40030C6
:1019400008436860D4E908010843696821F4741108
:1019500008436860C6F86090FFF72CFD044606E077
:1019600025E000BFFFF726FD001B022809D82868E4
:101970008001F7D51BE000BFFFF71CFD001B02280C
:1019800002D90320BDE8F88F28688001F4D40EE066
:101990000128F7D06868226A00F48031914204D1AE
:1019A000616A00F47010884201D00120EAE700204B
:1019B000E8E700000010024000004242800442427A
:1019C000100000200070004010B5401EB0F1807F74
:1019D00001D3012010BD4FF0E02460610F2160179A
:1019E00000F0FDFB0020A06107202061002010BD59
:1019F00070477047F8B5016804460868CA684B69C3
:101A000010F00F0F4FF0000559D003F0010602F45B
:101A10009077374365D0C10705D0D10503D5616CF8
:101A200041F001016164410705D5D90703D0616C1C
:101A300041F002016164810705D5D90703D0616CCB
:101A400041F004016164010707D502F02001314330
:101A500003D0616C41F008016164616C00293AD0E7
:101A6000800604D5900602D5204600F0ACFA206826
:101A70004069616CC0F38010090700D460B3204650
:101A800000F06CFA20684069400621D520681430C7
:101A900050E8001F21F0400140E80012002AF5D173
:101AA000E06BA8B16D494163E06BFFF737FA00289E
:101AB00011D0E06B416B01B0BDE8F04008478306F0
:101AC0000FD593060DD52046BDE8F84000F07BBA4F
:101AD0002046FFF78EFFF8BD2046FFF78AFF6564BA
:101AE000F8BD266B2023012E7CD1C6067AD5D606FA
:101AF00078D508684868009048694FF002064006AB
:101B000040D5E16B086840680004000CE8D0A28D65
:101B10008242E5D9E085886920282DD020680C30E4
:101B200050E8001F21F4807140E80012002AF5D12E
:101B30002068143050E8001F21F0010140E8001235
:101B4000002AF5D12068143050E8001F21F0400130
:101B500040E80012002AF5D184F84230256320685D
:101B60000C3050E8001F21F0100140E80012002A5C
:101B7000F5D1E06BFFF7AEF96663A08DE18D401AF9
:101B800081B22AE0A08DE18D401A81B2E08D00285B
:101B9000A6D00029A4D022680C3252E8000F20F40D
:101BA000907042E80007002FF5D12068143050E80B
:101BB000002F22F0010240E80027002FF5D184F821
:101BC0004230256320680C3050E8002F22F01002CC
:101BD00040E80023002BF5D166632046FFF708FF9D
:101BE000F8BDFFE705062BD5150629D594F8410069
:101BF0002128F5D1A068B0F5805F01D12069B0B18E
:101C0000206A411C2162216800784860E08C401EF7
:101C10000004000CE084E3D12068C16821F0800159
:101C2000C1602068C16841F04001C160D8E7206A06
:101C30000088C0F308004860206A801C2062E5E745
:101C40004006CDD55006CBD5CA68204622F04002CA
:101C5000CA6084F8413000F0CAF8C1E75F1E00088E
:101C600070B5040004D094F84100002510B106E0DE
:101C7000012070BD84F84050204600F023F8242055
:101C800084F841002068C16821F40051C1602046F9
:101C900000F0FAF92068016921F49041016120689F
:101CA000416921F02A0141612068C16841F4005175
:101CB000C1606564202084F8410084F842006563B7
:101CC000002070BDF0B585B0002406460094019454
:101CD0000294039400682C49884252D12B488169B0
:101CE00041F480418161816901F4804104918169FD
:101CF00041F0040181618069254D00F004000490E9
:101D00004FF4007000900220019003200390694678
:101D10002846FFF75FFA2815CDE9000469462846F2
:101D20000294FFF757FA1C4D1A48802701C510206E
:101D300091C5194845F810496C61AC61EC61FFF739
:101D4000E3F908B1FFF7C4F8B5636E621148134DAB
:101D50001430C5E90004C5E902472C616C61AC612F
:101D60002846EC61FFF7D0F908B1FFF7B1F8F56349
:101D70000022114625206E62FFF788FB2520FFF721
:101D800077FB05B0F0BD00000038014000100240B4
:101D9000000801404400024074000020B800002008
:101DA00090F84230202B01D00220704721B11AB1A7
:101DB0000023036300F0C4B90120704710B5084C3C
:101DC00008A02168FEF70CFA20680749401C206033
:101DD000014405480122BDE810404838FFF7E0BF44
:101DE0000000002025640A0068000020704770474A
:101DF000FEE7FEE7FEE770477047FFF7E1BA30B550
:101E00008FB028216846FEF767FA14210AA8FEF76A
:101E100063FA01210804CDE9001000240294022590
:101E20000491CDE907504FF4E01009906846FFF7A0
:101E30003BFC08B172B6FEE70F20CDE90A054FF46E
:101E40008060CDE90C4002210AA80E94FFF750FBF8
:101E5000002801D072B6FEE70FB030BD704710B554
:101E6000406A0021C185C184FFF7C3FD10BD70B574
:101E7000446A2068406994F84110C0F3C0100025FE
:101E8000212904D118B1E584204600F08EF820689D
:101E9000406994F84210C0F38010222904D118B18F
:101EA000E585204600F05AF8606C40F01000606450
:101EB0002046FFF79EFD70BD10B50146406A0968D7
:101EC00009684FF0000289062ED4C28501680C31E2
:101ED00051E8003F23F4807341E80034002CF5D131
:101EE0000168143151E8003F23F0010341E8003458
:101EF000002CF5D10168143151E8003F23F0400374
:101F000041E80034002CF5D1202180F84210016B0B
:101F1000012909D101680C3151E8003F23F0100379
:101F200041E80034002CF5D14263016B012902D055
:101F3000FFF744FF10BD818DFFF75AFD10BD10B5AE
:101F4000406A01214163016B012902D0FFF74EFF76
:101F500010BD818D4908FFF74BFD10BD01680C31A4
:101F600051E8002F22F4907241E80023002BF5D1B4
:101F70000168143151E8002F22F0010241E80023EA
:101F8000002BF5D1016B012909D101680C3151E811
:101F9000002F22F0100241E80023002BF5D1202170
:101FA00080F8421000210163704701680C3151E84C
:101FB000002F22F0C00241E80023002BF5D12021A0
:101FC00080F84110704708B590F84210222901D0DE
:101FD000022008BD82684FF480539A4201D1016902
:101FE00021B1816A9A421BD04AB10AE00268816A33
:101FF0005268C2F308020A80816A891C08E00269FB
:1020000072B10268526802F07F020A70816A491C4C
:102010008162C18D491E0904090CC18503D01BE0F2
:1020200002685268F1E70168CA6822F02002CA60BB
:102030000168CA6822F48072CA6001684A6922F0A5
:1020400001024A61202180F8421000214163026BA5
:10205000012A03D0FFF7B2FE002008BD016301682A
:102060000C3151E8002F22F0100241E80023002B30
:10207000F5D101680A68D20602D50A68496800915C
:10208000818DFFF7B5FCE7E770B50446006801698C
:10209000E26821F44051114301612169A0680843BD
:1020A000616908432168CA6841F20C639A4302439C
:1020B000CA6020684169A26921F4407111434161FD
:1020C0001E492068884202D1FFF7B8FA01E0FFF705
:1020D000A5FA00EBC00101EB0012606864218000EA
:1020E000B2FBF0F3B3FBF1F36FF018067343B2FBEE
:1020F000F0F5B2FBF0F605EB8305322303EB051593
:10210000B5FBF1F5B6FBF1F605F0F00505EB0615AC
:10211000B2FBF0F6B2FBF0F0B0FBF1F06FF018029A
:10212000504306EB800003EB0010B0FBF1F0216898
:1021300000F00F002844886070BD000000380140A6
:1021400038B58162044682850020134660642222ED
:1021500084F84220E56B1B4AAA62E56B1A4AEA62E0
:10216000E56B1A4A2A63E26B50630A462168E06B0A
:10217000091DFEF7F7FF206801684068009020699C
:1021800048B120680C3050E8001F41F4807140E8ED
:102190000012002AF5D12068143050E8001F41F0E9
:1021A000010140E80012002AF5D12068143050E8FF
:1021B000001F41F0400140E80012002AF5D1002044
:1021C00038BD0000B91E00083F1F00086F1E000840
:1021D0000148FFF70FBC000020000020FEE70907C0
:1021E000090E002804DB00F1E02080F8001470479D
:1021F00000F00F0000F1E02080F8141D70478A689D
:10220000002A01DCFEF735BA521E8A604A68C0B265
:10221000531C4B601070704708B5FFF7D9F8FFF7F3
:10222000EEFD2148816941F020018161816901F061
:1022300020010091816941F004018161816901F00F
:1022400004010091416941F00101416140690022AE
:1022500000F00100009011460E20FFF717F90E2044
:10226000FFF706F9002211460F20FFF70FF90F20A4
:10227000FFF7FEF80E480D490C2201604FF4E131E2
:10228000416000218160C160C0E904128161C161C7
:10229000FFF7E6FC08B172B6FEE7054901224831B6
:1022A0000348FFF77DFDF8E70010024000380140C9
:1022B00020000020010202030405060708090A0B9A
:1022C0000C0D0E0F101000000000000000000102B5
:1022D00003040607080900000000010203043A7421
:1022E00074003A7474003A74740000000C230008FF
:1022F0000000002020000000280100082C23000816
:102300002000002038080000440100080000000000
:1023100001000000100000000000000000127A0020
:0C232000000000000000000000000000B1
:04000005080000ED02
:00000001FF
